:020000040000FA
:100000000C9458000C9480000C9480000C94800098
:100010000C9480000C9480000C9480000C94800060
:100020000C9480000C9480000C9480000C94800050
:100030000C9480000C9480000C9480000C94800040
:100040000C9430060C9480000C94FE050C94D8059A
:100050000C9480000C9480000C9480000C94800020
:100060000C947A060C948000000000002500280003
:100070002B00040404040404040402020202020229
:10008000030303030303010204081020408001025C
:1000900004081020010204081020000000080002DB
:1000A00001000003040700000000000000009507A5
:1000B00011241FBECFEFD8E0DEBFCDBF11E0A0E01E
:1000C000B1E0E0E6F7E102C005900D92AE39B1076C
:1000D000D9F722E0AEE9B1E001C01D92A53FB20719
:1000E000E1F710E0C8E5D0E004C02197FE010E94CE
:1000F000A80BC735D107C9F70E94DD070C94AE0BDA
:100100000C940000FC01538D448D252F30E0842F8A
:1001100090E0821B930B541710F0CF96089501972F
:100120000895FC01918D828D981761F0A28DAE0F1C
:10013000BF2FB11D5D968C91928D9F5F9F73928FA3
:1001400090E008958FEF9FEF0895FC01918D828DCF
:10015000981731F0828DE80FF11D858D90E008959C
:100160008FEF9FEF0895FC01918D228D892F90E0F4
:10017000805C9F4F821B91098F7399270895FC0122
:10018000A48DA80FB92FB11DA35ABF4F2C91848DF8
:1001900090E001968F739927848FA689B7892C9355
:1001A000A089B1898C91837080648C93938D848DA8
:1001B000981306C00288F389E02D80818F7D8083AB
:1001C0000895EF92FF920F931F93CF93DF93EC016B
:1001D00081E0888F9B8D8C8D98131AC0E889F989EE
:1001E000808185FF15C09FB7F894EE89FF896083F1
:1001F000E889F98980818370806480839FBF81E072
:1002000090E0DF91CF911F910F91FF90EF900895B3
:10021000F62E0B8D10E00F5F1F4F0F731127E02E8E
:100220008C8D8E110CC00FB607FCFACFE889F989C6
:10023000808185FFF5CFCE010E94BF00F1CFEB8D0D
:10024000EC0FFD2FF11DE35AFF4FF0829FB7F8949A
:100250000B8FEA89FB8980818062CFCFCF93DF93B8
:10026000EC01888D8823B9F0AA89BB89E889F989CE
:100270008C9185FD03C0808186FD0DC00FB607FC03
:10028000F7CF8C9185FFF2CF808185FFEDCFCE0136
:100290000E94BF00E9CFDF91CF91089580E492E002
:1002A0000E94B30021E0892B09F420E0822F0895F9
:1002B00080E090E0892B29F00E944E0181110C947E
:1002C00000000895AF92BF92CF92DF92EF92FF921B
:1002D0000F931F93CF93DF936C017B018B01040F6E
:1002E000151FEB015E01AE18BF08C017D10759F00A
:1002F0006991D601ED91FC910190F081E02DC6014C
:100300000995892B79F7C501DF91CF911F910F9145
:10031000FF90EF90DF90CF90BF90AF90089590E066
:10032000FC01E656FF4F2491FC01EA57FF4F349140
:10033000FC01EE58FF4FE491EE23C9F0222339F07F
:10034000233001F1A8F4213019F1223029F1F0E035
:10035000EE0FFF1FE859FF4FA591B4918FB7F894A6
:10036000EC91611126C030953E233C938FBF0895D8
:100370002730A9F02830C9F0243049F78091800057
:100380008F7D03C0809180008F7780938000DFCFC6
:1003900084B58F7784BDDBCF84B58F7DFBCF809113
:1003A000B0008F778093B000D2CF8091B0008F7D66
:1003B000F9CF3E2BDACF3FB7F89480913802909175
:1003C0003902A0913A02B0913B0226B5A89B05C024
:1003D0002F3F19F00196A11DB11D3FBFBA2FA92FC4
:1003E000982F8827BC01CD01620F711D811D911DC1
:1003F00042E0660F771F881F991F4A95D1F708952D
:100400008F929F92AF92BF92CF92DF92EF92FF9224
:100410004B015C010E94DB016B017C010E94DB014E
:100420006C197D098E099F09683E7340810591050D
:10043000A8F321E0821A9108A108B10888EEC80E3D
:1004400083E0D81EE11CF11C81149104A104B104C5
:1004500029F7FF90EF90DF90CF90BF90AF909F90E3
:100460008F9008951F93CF93DF93C1E0C093C8018D
:10047000882399F1D091B8001091BA008091BC0006
:100480008A7B8093BC0060E082E10E948F0160E083
:1004900083E10E948F0110920D02C0930F0210920F
:1004A0000E0261E082E10E948F0161E083E10E941F
:1004B0008F018091B9008E7F8093B9008091B9003F
:1004C0008D7F8093B90088E48093B80085E48093A1
:1004D000BC001093BA00D093B800DF91CF911F9168
:1004E00008952091E901260F3327331F213231056A
:1004F000ECF420910D02FC0190E080E0243069F0E2
:1005000082E00895A091E9012191AC0147535E4F2B
:10051000A40FB52FB11D2C930196861798F38091E7
:10052000E901680F6093E90180E0089581E0089592
:1005300008958FEF9FEF08958FEF9FEF08958091BB
:10054000C20190E09195819591090895CF92DF9233
:10055000EF92FF920F931F93CF93DF937C01CB0118
:100560008A012091C101222389F0EB016B01C40EA5
:10057000D51ECC15DD0569F06991D701ED91FC918F
:100580000190F081E02DC7010995F3CF642F0E94FF
:100590007102C801DF91CF911F910F91FF90EF90F1
:1005A000DF90CF900895CF93DF931F92CDB7DEB742
:1005B00069832091C1012223F9F02091C0012032EA
:1005C00058F021E030E0FC013383228390E080E0AA
:1005D0000F90DF91CF9108958091BF01E82FF0E057
:1005E000E156FE4F998190838F5F8093BF01809386
:1005F000C00181E090E0ECCF61E0CE0101960E9465
:100600007102F7CFCF92DF92EF92FF920F931F9379
:10061000CF93DF93FC01C48121E02093C101C093FB
:100620009E011092BF011092C0018385682B8DED51
:1006300092E00E94D302D091C001D13208F092C062
:100640000E94DB016B017C0180910D02811165C06C
:1006500082E080930D0281E080930F028FEF809300
:100660000C0210923102D0933002AFE9B1E0E0E128
:10067000F2E080E0D81385C01092320280913202FD
:10068000CC0FC82BC093320280910E02813009F04A
:100690007CC010920E020E94DB016B017C018091F4
:1006A00032028093BB008091C4019091C501A0915A
:1006B000C601B091C701892B8A2B8B2B99F00E9420
:1006C000DB010091C4011091C5012091C601309158
:1006D000C7016C197D098E099F090617170728079E
:1006E0003907E0F18091BC0083FDD9CF85EC809380
:1006F000BC000E94DB016B017C0180910D02823005
:1007000009F445C080910C028F3F61F180910C0289
:10071000803241F180910C0225C08091C4019091FA
:10072000C501A091C601B091C701892B8A2B8B2BE3
:1007300009F48ACF0E94DB010091C4011091C50128
:100740002091C6013091C7016C197D098E099F095E
:10075000061717072807390708F076CF8091C301DD
:100760000E9432021092BF011092C0011092C1018A
:10077000DF91CF911F910F91FF90EF90DF90CF907D
:1007800008959D9191938F5F75CF85EEB0CF809145
:10079000C4019091C501A091C601B091C701892BF8
:1007A0008A2B8B2B09F4A9CF0E94DB010091C40195
:1007B0001091C5012091C6013091C7016C197D09C6
:1007C0008E099F09061717072807390708F095CFE4
:1007D000C5CF089590E080E00895FB0101900020CE
:1007E000E9F73197AF01461B570BDC01ED91FC9106
:1007F0000280F381E02D09948F929F92AF92BF9275
:10080000EF92FF920F931F93CF93DF93CDB7DEB795
:10081000A1970FB6F894DEBF0FBECDBF7C01FA01E1
:10082000CB0119A2223008F42AE08E010F5D1F4F80
:10083000822E912CB12CA12CBF01A50194010E9404
:10084000860BF901CA016A300CF5605DD8016E9320
:100850008D01232B242B252B79F790E080E0109736
:1008600021F0BD01C7010E94ED03A1960FB6F894D7
:10087000DEBF0FBECDBFDF91CF911F910F91FF90D3
:10088000EF90BF90AF909F908F900895695CDECFFE
:100890002F923F924F925F926F927F928F929F9290
:1008A000AF92BF92CF92DF92EF92FF921F93CF93BE
:1008B000DF93EC016A017B01722EAB019601CB0143
:1008C000B6010E94810B68E371E0811126C04601E8
:1008D0005701E894B7F82FEF3FEF4FE75FE7C50107
:1008E000B4010E94810B81110CC02FEF3FEF4FE745
:1008F0005FE7C501B4010E94B7096CE371E0181607
:1009000064F02FEF3FEF4FE75FE4C701B6010E94AD
:100910000F0B1816B4F460E471E0CE01DF91CF91B3
:100920001F91FF90EF90DF90CF90BF90AF909F907E
:100930008F907F906F905F904F903F902F900C948E
:10094000ED032FEF3FEF4FE75FECC701B6010E94C9
:10095000B70987FDE0CF20E030E0A901C701B6016B
:100960000E94B709312C212C87FF0DC0E881F98145
:100970000190F081E02D6DE2CE0109951C01F7FA9E
:10098000F094F7F8F09410E060E070E080E09FE30E
:10099000711641F020E030E040E251E40E94BC09D1
:1009A0001F5FF6CFA70196010E944B092B013C0166
:1009B0000E942E0A4B015C012AE0BC01A401CE0179
:1009C0000E94FC037C01E20CF31C1123E1F1C50140
:1009D000B4010E945D0A9B01AC01C301B2010E94F7
:1009E0004A094B015C01E881F9810190F081E02D19
:1009F0006EE2CE010995E80EF91E115020F120E0BB
:100A000030E040E251E4C501B4010E94140B2B0117
:100A10003C010E942E0A4B01B12CA12C2AE0B50109
:100A2000A401CE010E94FC03E80EF91EC501B40129
:100A30000E945D0A9B01AC01C301B2010E944A09F8
:100A40004B015C01DACFC701DF91CF911F91FF907D
:100A5000EF90DF90CF90BF90AF909F908F907F905E
:100A60006F905F904F903F902F9008950F931F933A
:100A7000CF938C01C62F0E9402036C2F6460C801C3
:100A80000E9402036C2F6B7FC8010E94020383EC5B
:100A900090E00197F1F7CF911F910F9108950F9377
:100AA0001F93CF93DF938C01D62FC42F607F642BCD
:100AB0000E94360580E1D89FB00111246C2BC8013B
:100AC000DF91CF911F910F910C943605CF93DF9357
:100AD000CDB7DEB728970FB6F894DEBF0FBECDBFF7
:100AE00098E0E0E0F1E0DE01119601900D929A9518
:100AF000E1F79091F102961710F46FEF690F262F2E
:100B000030E0220F331F41E050E04C0F5D1F240FF7
:100B1000351FF9016081680F606840E089EE92E05E
:100B200028960FB6F894DEBF0FBECDBFDF91CF91F0
:100B30000C944F0541E00E944F0581E090E008953C
:100B400085ED8093BC008091C4019091C501A09176
:100B5000C601B091C7010796A11DB11D23E0B6954E
:100B6000A795979587952A95D1F72091BC0024FDEC
:100B700003C010920D0208954091C4015091C50127
:100B80006091C6017091C701452B462B472B69F335
:100B90000097A105B10541F025E32A95F1F7000082
:100BA0000197A109B109E1CF8091C3010C943202F0
:100BB0001F920F920FB60F9211242F933F934F93D2
:100BC0005F936F937F938F939F93AF93BF93EF93B5
:100BD000FF9380E492E00E94BF00FF91EF91BF91EC
:100BE000AF919F918F917F916F915F914F913F91C5
:100BF0002F910F900FBE0F901F9018951F920F927C
:100C00000FB60F9211242F938F939F93EF93FF931F
:100C1000E0915002F09151028081E0915602F091F2
:100C2000570282FD1BC09081809159028F5F8F73A4
:100C300020915A02821741F0E0915902F0E0E05C05
:100C4000FD4F958F80935902FF91EF919F918F9166
:100C50002F910F900FBE0F901F9018958081F4CFA9
:100C60001F920F920FB60F9211242F933F938F93E1
:100C70009F93AF93BF938091340290913502A091DE
:100C80003602B09137023091330223E0230F2D3723
:100C900058F50196A11DB11D2093330280933402B3
:100CA00090933502A0933602B093370280913802B8
:100CB00090913902A0913A02B0913B020196A11D98
:100CC000B11D8093380290933902A0933A02B093F9
:100CD0003B02BF91AF919F918F913F912F910F90C8
:100CE0000FBE0F901F90189526E8230F0296A11DA6
:100CF000B11DD2CF1F920F920FB60F9211242F93D6
:100D00003F934F935F936F937F938F939F93AF9393
:100D1000BF93EF93FF938091B900887F803609F4E9
:100D20004AC0F0F5883209F4A5C018F5803109F4FD
:100D300099C0B8F4882309F4F5C0883009F492C04A
:100D4000FF91EF91BF91AF919F918F917F916F91A3
:100D50005F914F913F912F910F900FBE0F901F9079
:100D60001895883109F486C0803251F780930C02BF
:100D700014C0803409F49BC040F48033B9F3883345
:100D8000F9F680930C0285ECAEC0803509F483C07F
:100D9000883509F494C0883499F60E94A005D0CF14
:100DA000883909F48AC038F5883729F050F4883634
:100DB00011F0803729F683E080930D0210920B0228
:100DC00055C0883809F479C0803919F0803809F0A5
:100DD000B7CF80910B02803208F06FC0E0910B0218
:100DE00081E08E0F80930B028091BB00F0E0E55113
:100DF000FE4F80833BC0803B39F0D0F4803A09F449
:100E000077C0883A09F09CCF84E080930D0210925D
:100E1000EA011092E901F0E0E0E009958091E90132
:100E200081110FC081E08093E9011092C90109C0CE
:100E3000803C09F4A8CF883C09F4A5CF883B09F091
:100E40007FCFE091EA0181E08E0F8093EA01F0E02C
:100E5000E753FE4F80818093BB009091EA0180911F
:100E6000E90129C0809132028093BB0085EC809318
:100E7000BC0066CF9091310280913002981758F5EE
:100E8000E091310281E08E0F80933102F0E0E05F6B
:100E9000FD4F8081E9CFE091310281E08E0F809398
:100EA00031028091BB00F0E0E05FFD4F80839091C4
:100EB0003102809130029817C8F285E8D8CFE091CE
:100EC000310281E08E0F809331028091BB00F0E00F
:100ED000E05FFD4F808380910F0281115ECF81E042
:100EE00080930E0284EA8093BC0010920D0228CFFA
:100EF00085EC8093BC0010920D0280910B02803231
:100F000030F4E0910B02F0E0E551FE4F1082609169
:100F10000B0270E08BEE91E0F0E0E0E009951092BA
:100F20000B020ECF10920C0238CFE0E4F2E01382F5
:100F3000128288EE93E0A0E0B0E084839583A683DC
:100F4000B7832CE031E03183208325EC30E0358716
:100F5000248724EC30E03787268720EC30E0318B83
:100F6000208B21EC30E0338B228B22EC30E0358B70
:100F7000248B26EC30E0378B268B118E128E138E4D
:100F8000148EEDEDF2E01382128284839583A683A2
:100F9000B7838EE191E091838083E9EEF2E01382E2
:100FA000128280E391E09183808388E3848384E1EB
:100FB000818784E0828713860895789484B582605F
:100FC00084BD84B5816084BD85B5826085BD85B5ED
:100FD000816085BD80916E00816080936E0010926B
:100FE00081008091810082608093810080918100E6
:100FF0008160809381008091800081608093800077
:101000008091B10084608093B1008091B0008160D4
:101010008093B00080917A00846080937A00809100
:101020007A00826080937A0080917A008160809358
:101030007A0080917A00806880937A001092C100D3
:101040008091EE0288608093EE0214E01093F1022A
:1010500062E370E080E090E00E9400026091F402A0
:1010600089EE92E00E94020368EE73E080E090E077
:101070000E94000260E389EE92E00E943605CBE414
:10108000D6E4CE010197F1F760E389EE92E00E9489
:1010900036052197F1F760E389EE92E00E9436056C
:1010A00083E592E00197F1F760E289EE92E00E9419
:1010B00036056091EE02606240E089EE92E00E94A7
:1010C0004F051093EF0240E06CE089EE92E00E9441
:1010D0004F0540E061E089EE92E00E944F05CBE3CE
:1010E000DFE1CE010197F1F782E08093F00240E06A
:1010F00066E089EE92E00E944F0540E062E089EEF2
:1011000092E00E944F05CE010197F1F761E080E087
:101110000E94660564E471E089EE92E00E94ED03AE
:1011200062E080E00E94660569E571E089EE92E088
:101130000E94ED0368EB7BE080E090E00E940002FB
:1011400040E061E089EE92E00E944F052197F1F7BF
:1011500061E081E00E9466056EE671E089EE92E052
:101160000E94ED0310E4C0E0D0E010937C00809179
:101170007A00806480937A0080917A0086FDFCCFAB
:101180008091780060917900762F682F072E000CEF
:10119000880B990B0E945F0A20E030E040EA50E49F
:1011A0000E94140B20E030E040E85AE30E94140B48
:1011B0002CE83EE24AEB5DE30E94BC096B017C0136
:1011C0002DEC3CEC4CEC5DE30E94B70987FD59C067
:1011D000C0923C02D0923D02E0923E02F0923F0269
:1011E00060E871E080E492E00E94ED0340913C02EF
:1011F00050913D0260913E0270913F0222E080E4F6
:1012000092E00E9448046AE871E080E492E00E9463
:10121000ED0361E971E080E492E00E94ED0363E098
:1012200080E00E94660564E971E089EE92E00E9428
:10123000ED0340913C0250913D0260913E0270915D
:101240003F0222E089EE92E00E94480463E08FE0D2
:101250000E9466056BE871E089EE92E00E94ED0362
:1012600064EF71E080E090E00E940002209709F4B2
:101270007CCF0E944E01882309F477CF0E940000A2
:1012800074CF10923C0210923D0210923E021092D6
:101290003F02A6CF5058BB27AA270E9462090C9490
:1012A000D50A0E94C70A38F00E94CE0A20F039F40D
:1012B0009F3F19F426F40C94C40A0EF4E095E7FB62
:1012C0000C94BE0AE92F0E94E60A58F3BA17620787
:1012D00073078407950720F079F4A6F50C94080BA2
:1012E0000EF4E0950B2EBA2FA02D0B01B901900141
:1012F0000C01CA01A0011124FF27591B99F0593F85
:1013000050F4503E68F11A16F040A22F232F342FCC
:101310004427585FF3CF469537952795A795F0401A
:101320005395C9F77EF41F16BA0B620B730B840B2F
:10133000BAF09150A1F0FF0FBB1F661F771F881FE7
:10134000C2F70EC0BA0F621F731F841F48F487953F
:1013500077956795B795F7959E3F08F0B0CF939531
:10136000880F08F09927EE0F9795879508950E94AA
:101370009A0A08F481E008950E94D0090C94D50AD5
:101380000E94CE0A58F00E94C70A40F029F45F3F3D
:1013900029F00C94BE0A51110C94090B0C94C40A48
:1013A0000E94E60A68F39923B1F3552391F3951B44
:1013B000550BBB27AA2762177307840738F09F5F76
:1013C0005F4F220F331F441FAA1FA9F335D00E2EE3
:1013D0003AF0E0E832D091505040E695001CCAF750
:1013E0002BD0FE2F29D0660F771F881FBB1F261713
:1013F00037074807AB07B0E809F0BB0B802DBF01EA
:10140000FF2793585F4F3AF09E3F510578F00C94B8
:10141000BE0A0C94090B5F3FE4F3983ED4F3869523
:1014200077956795B795F7959F5FC9F7880F911DD9
:101430009695879597F90895E1E0660F771F881FC5
:10144000BB1F621773078407BA0720F0621B730B78
:10145000840BBA0BEE1F88F7E09508950E94EE0A00
:1014600088F09F5798F0B92F9927B751B0F0E1F065
:10147000660F771F881F991F1AF0BA95C9F714C015
:10148000B13091F00E94080BB1E008950C94080B64
:10149000672F782F8827B85F39F0B93FCCF386954E
:1014A00077956795B395D9F73EF4909580957095AB
:1014B00061957F4F8F4F9F4F0895E89409C097FB28
:1014C0003EF490958095709561957F4F8F4F9F4F1B
:1014D0009923A9F0F92F96E9BB279395F69587955F
:1014E00077956795B795F111F8CFFAF4BB0F11F422
:1014F00060FF1BC06F5F7F4F8F4F9F4F16C08823C9
:1015000011F096E911C0772321F09EE8872F762FFE
:1015100005C0662371F096E8862F70E060E02AF03F
:101520009A95660F771F881FDAF7880F969587952B
:1015300097F90895990F0008550FAA0BE0E8FEEF00
:1015400016161706E807F907C0F012161306E40787
:10155000F50798F0621B730B840B950B39F40A2680
:1015600061F0232B242B252B21F408950A2609F45E
:10157000A140A6958FEF811D811D089597F99F6762
:1015800080E870E060E008959FEF80EC089500240B
:101590000A941616170618060906089500240A94D8
:1015A00012161306140605060895092E0394000C5E
:1015B00011F4882352F0BB0F40F4BF2B11F460FFED
:1015C00004C06F5F7F4F8F4F9F4F089557FD905816
:1015D000440F551F59F05F3F71F04795880F97FBF7
:1015E000991F61F09F3F79F08795089512161306B1
:1015F0001406551FF2CF4695F1DF08C016161706E0
:101600001806991FF1CF8695710561050894089514
:10161000E894BB2766277727CB0197F908950E94A6
:101620009A0A08F48FEF08950E94270B0C94D50AAC
:101630000E94C70A38F00E94CE0A20F0952311F0CC
:101640000C94BE0A0C94C40A11240C94090B0E9439
:10165000E60A70F3959FC1F3950F50E0551F629F06
:10166000F001729FBB27F00DB11D639FAA27F00DFB
:10167000B11DAA1F649F6627B00DA11D661F829F22
:101680002227B00DA11D621F739FB00DA11D621F07
:10169000839FA00D611D221F749F3327A00D611D24
:1016A000231F849F600D211D822F762F6A2F112406
:1016B0009F5750409AF0F1F088234AF0EE0FFF1F39
:1016C000BB1F661F771F881F91505040A9F79E3F90
:1016D000510580F00C94BE0A0C94090B5F3FE4F3B3
:1016E000983ED4F3869577956795B795F795E795E6
:1016F0009F5FC1F7FE2B880F911D9695879597F9EF
:1017000008950E949A0A880B990B0895A1E21A2E57
:10171000AA1BBB1BFD010DC0AA1FBB1FEE1FFF1F95
:10172000A217B307E407F50720F0A21BB30BE40BE5
:10173000F50B661F771F881F991F1A9469F760952C
:101740007095809590959B01AC01BD01CF010895E6
:10175000EE0FFF1F0590F491E02D0994F894FFCF50
:10176000000040001400540000000000E10062018D
:1017700082002E01B3009100A50000000000D302FA
:10178000A602EA0398029F029C0299020000000050
:101790009A056201EA03E9036E616E00696E6600F4
:1017A0006F766600486F6D654D61646520456C65B8
:1017B0006374726F6E69637300736972626F6174D0
:1017C000656E676F6E6C696E652E636F6D00446940
:1017D000676974616C20566F6C746D657465720016
:1017E000566F6C746167653A200020564F4C545315
:0E17F000000D0A00566F6C746167653D2000A5
:107E0000112484B714BE81FFF0D085E080938100F7
:107E100082E08093C00088E18093C10086E0809377
:107E2000C20080E18093C4008EE0C9D0259A86E02C
:107E300020E33CEF91E0309385002093840096BBD3
:107E4000B09BFECF1D9AA8958150A9F7CC24DD24C4
:107E500088248394B5E0AB2EA1E19A2EF3E0BF2EE7
:107E6000A2D0813461F49FD0082FAFD0023811F036
:107E7000013811F484E001C083E08DD089C08234E0
:107E800011F484E103C0853419F485E0A6D080C0E4
:107E9000853579F488D0E82EFF2485D0082F10E0AE
:107EA000102F00270E291F29000F111F8ED06801E7
:107EB0006FC0863521F484E090D080E0DECF843638
:107EC00009F040C070D06FD0082F6DD080E0C81688
:107ED00080E7D80618F4F601B7BEE895C0E0D1E017
:107EE00062D089930C17E1F7F0E0CF16F0E7DF06D8
:107EF00018F0F601B7BEE89568D007B600FCFDCFD4
:107F0000A601A0E0B1E02C9130E011968C91119780
:107F100090E0982F8827822B932B1296FA010C0160
:107F200087BEE89511244E5F5F4FF1E0A038BF0790
:107F300051F7F601A7BEE89507B600FCFDCF97BE46
:107F4000E89526C08437B1F42ED02DD0F82E2BD052
:107F50003CD0F601EF2C8F010F5F1F4F84911BD097
:107F6000EA94F801C1F70894C11CD11CFA94CF0C13
:107F7000D11C0EC0853739F428D08EE10CD085E9AC
:107F80000AD08FE07ACF813511F488E018D01DD067
:107F900080E101D065CF982F8091C00085FFFCCF94
:107FA0009093C60008958091C00087FFFCCF809118
:107FB000C00084FD01C0A8958091C6000895E0E648
:107FC000F0E098E1908380830895EDDF803219F02E
:107FD00088E0F5DFFFCF84E1DECF1F93182FE3DFCA
:107FE0001150E9F7F2DF1F91089580E0E8DFEE27F6
:047FF000FF270994CA
:027FFE00040479
:00000001FF
